:100000000C9434000C9451000C9451000C94510049
:100010000C9451000C9451000C9451000C9451001C
:100020000C9451000C9451000C9451000C9451000C
:100030000C9451000C9451000C9451000C945100FC
:100040000C9451000C9451000C9451000C945100EC
:100050000C9451000C9451000C9451000C945100DC
:100060000C9451000C94510011241FBECFEFD8E026
:10007000DEBFCDBF1BE0A0E0B1E0E8E5F1E002C0EB
:1000800005900D92AA3CB107D9F72BE0AAECBBE092
:1000900001C01D92A03DB207E1F70E947C000C94C4
:1000A000AA000C94000021E030E03093CF0B2093A5
:1000B000CE0B019747E1489F9001499F300D1124D5
:1000C0008091CE0B9091CF0B88319105A4F4805094
:1000D0009F4FFC01E20FF31F80818EBD0DB407FE20
:1000E000FDCF8091CE0B9091CF0B01969093CF0BCB
:1000F0008093CE0BE5CF089580E880936100109245
:1001000061008FEF84B980E78CBDC1E0D0E0CE0103
:100110000E945300289A87E899E00197F1F700C000
:10012000000028988091CA0B9091CB0BA091CC0B2A
:10013000B091CD0B0196A11DB11D8093CA0B909378
:10014000CB0BA093CC0BB093CD0B2196C937D10527
:08015000F1F6DBCFF894FFCFBC
:100158000000000000000000000000000000000097
:100168000000000000000000000000000000000087
:100178000000000000000000000000000000000077
:100188000000000000000000000000000000000067
:1004F80000000000FEFF3F000000000000000000B8
:1005080000000000000000000000000200200000C1
:100518000000C0FFFF010000000000000000000014
:10052800000002002000000000C0FFFF01000000E2
:100538000000000000000000000200200000000091
:10054800C0FFFF01000000000000000000000000E4
:1005580002002000000000C0FFFF010000000000B2
:100568000000000000000002002000000000C0FFA2
:10057800FF01000000000000000000000000020071
:100588002000000000C0FFFF010000000000003F45
:10059800000000000002002000000000C0FFC001B1
:1005A8000000000000003F000000000002002000E2
:1005B800000000C0FFC0010000000000003F000074
:1005C80000000002002000000000C0FFC001000081
:1005D800000000003F00000000E00F0020000000C5
:1005E8000000FFC0010000000000003F0000000004
:1005F800F81F00200000000000FEC00100000000FD
:1006080000003F00000000F83F002000000000004C
:10061800FCC0010000000000003F00000000FC7F5B
:1006280000200000000000F8C001000000000000E9
:100638003F00000000FC7F00200000000000F8C020
:10064800010000000000003F00000000FC7F0020C7
:100658000000000000F8C0010000000000003F009A
:10066800000000FC7F00200000000000F8C001002E
:1006780000000000003F00000000FC7F0020000098
:10068800000000F8C0010000000000003F0000006A
:1006980000FC7F00200000000000F8C001000000FE
:1006A8000000003F00000000FC7F00200000000068
:1006B80000F8C0010000000000003F00000000F842
:1006C8003F00200000000000FCC001000000000006
:1006D800003F00000000F01F00200000000000FEA6
:1006E800C0010000000000003F00000000E00F0013
:1006F800200000000000FFC0010000000000003FD3
:10070800000000000002002000000000C0FFC0013F
:100718000000000000003F00000000000200200070
:10072800000000C0FFC0010000000000003F000002
:1007380000000002002000000000C0FFC00100000F
:10074800000000003F000000000002002000000040
:1007580000C0FFC0010000000000003F00000000D2
:100768000002002000000000C0FFC00100000000DF
:1007780000003F000000000002002000000000C050
:10078800FFC0010000000000003F00000000000260
:10079800002000000000C0FFC001000000000000B1
:1007A8003F000000000002002000000000C0FFC061
:1007B800010000000000003F0000000000020020CF
:1007C80000000000C0FFC0010000000000003F0062
:1007D8000000000002002000000000C0FFC001006F
:1007E80000000000003F00000000000200200000A0
:1007F8000000C0FFC0010000000000003F00000032
:10080800000002002000000000C0FFC0010000003E
:100818000000003F0000000000020020000000006F
:10082800C0FFC0010000000000003F000000000001
:1008380002002000000000C0FFC00100000000000E
:10084800003F000000000002002000000000C0FF80
:10085800C0010000000000003F000000000002008E
:100868002000000000C0FFC0010000000000003FA1
:10087800000000000002002000000000C0FFC001CE
:100888000000000000003F000000000002002000FF
:10089800000000C0FFC0010000000000003F000091
:1008A8000000E00F00200000000000FFC001000071
:1008B800000000003F00000000F01F0020000000C2
:1008C8000000FEC0010000000000003F0000000022
:1008D800F03F00200000000000FCC0010000000004
:1008E80000003F00000000F87F002000000000002A
:1008F800F8C0010000000000003F00000000F87F81
:1009080000200000000000F8C00100000000000006
:100918003F00000000F87F00200000000000F8C041
:10092800010000000000003F00000000F87F0020E8
:100938000000000000F8C0010000000000003F00B7
:10094800000000F87F00200000000000F8C001004F
:1009580000000000003F00000000F87F00200000B9
:10096800000000F8C00100000000000000000000C6
:1009780000F03F00200000000000FCFF0100000024
:100988000000000000000000E01F00200000000040
:1009980000FEFF010000000000000000000000C091
:1009A8000F00200000000000FFFF01000000000011
:1009B8000000000000000002002000000000C0FF4E
:1009C800FF0100000000000000000000000002001D
:1009D8002000000000C0FFFF010000000000000030
:1009E800000000000002002000000000C0FFFF011E
:1009F80000000000000000000000000002002000CD
:100A0800000000C0FFFF010000000000000000001F
:100A1800000000FEFF3F0000000000000000000092
:100A280000000000000000000000000000000000BE
:100A380000000000000000000000000000000000AE
:100A4800000000000000000000000000000000009E
:100A5800000000000000000000000000000000008E
:100A6800000000000000000000000000000000007E
:100A7800000000000000000000000000000000006E
:100A8800000000000000000000000000000000005E
:100A9800000000000000000000000000000000004E
:100AA800000000000000000000000000000000003E
:100AB800000000000000000000000000000000002E
:100AC800000000000000000000000000000000001E
:100AD800000000000000000000000000000000000E
:100AE80000000000000000000000000000000000FE
:100AF80000000000000000000000000000000000EE
:100B080000000000000000000000000000000000DD
:100B180000000000000000000000000000000000CD
:100B280000000000000000000000000000000000BD
:100B380000000000000000000000000000000000AD
:100B4800000000000000000000000000000000009D
:100B5800000000000000000000000000000000008D
:100B6800000000000000000000000000000000007D
:100B7800000000000000000000000000000000006D
:100B8800000000000000000000000000000000005D
:100B9800000000000000000000000000000000004D
:100BA800000000000000000000000000000000003D
:100BB800000000000000000000000000000000002D
:100BC800000000000000000000000000000000001D
:100BD800000000000000000000000000000000000D
:100BE80000000000000000000000000000000000FD
:100BF80000000000000000000000000000000000ED
:100C080000000000000000000000000000000000DC
:0A0C180000000000000000000000D2
:00000001FF
