:100000000C9434000C943E000C943E000C943E0082
:100010000C943E000C943E000C943E000C943E0068
:100020000C943E000C943E000C943E000C943E0058
:100030000C943E000C943E000C943E000C943E0048
:100040000C943E000C943E000C943E000C943E0038
:100050000C943E000C943E000C943E000C943E0028
:100060000C943E000C943E0011241FBECFEFD8E04C
:10007000DEBFCDBF0E9440000C947E000C940000B7
:1000800087E08AB91BB8589880E490E05A98599A4A
:1000900059980197D9F78CE390E05A9A599A599850
:1000A0000197D9F78CE390E05A98599A599801979B
:1000B000D9F7589A8FE99FE00197F1F700C0000047
:1000C000589880E490E05A98599A59980197D9F72E
:1000D0008CE390E05A98599A59980197D9F78CE394
:1000E00090E05A9A599A59980197D9F7589A8FE8F7
:1000F00091E00197F1F700C00000C5CFF894FFCF61
:00000001FF
